{
  "address": "0x83392B91eE6E11023F3D9F71252201e7c5e2c1fb",
  "abi": [
    {
      "inputs": [
        {
          "internalType": "uint256",
          "name": "_lockTime",
          "type": "uint256"
        },
        {
          "internalType": "address",
          "name": "_dataFeed",
          "type": "address"
        }
      ],
      "stateMutability": "nonpayable",
      "type": "constructor"
    },
    {
      "inputs": [],
      "name": "dataFeed",
      "outputs": [
        {
          "internalType": "contract AggregatorV3Interface",
          "name": "",
          "type": "address"
        }
      ],
      "stateMutability": "view",
      "type": "function"
    },
    {
      "inputs": [],
      "name": "fund",
      "outputs": [],
      "stateMutability": "payable",
      "type": "function"
    },
    {
      "inputs": [
        {
          "internalType": "address",
          "name": "",
          "type": "address"
        }
      ],
      "name": "fundersToAmount",
      "outputs": [
        {
          "internalType": "uint256",
          "name": "",
          "type": "uint256"
        }
      ],
      "stateMutability": "view",
      "type": "function"
    },
    {
      "inputs": [],
      "name": "getChainlinkDataFeedLatestAnswer",
      "outputs": [
        {
          "internalType": "int256",
          "name": "",
          "type": "int256"
        }
      ],
      "stateMutability": "view",
      "type": "function"
    },
    {
      "inputs": [],
      "name": "getFund",
      "outputs": [],
      "stateMutability": "nonpayable",
      "type": "function"
    },
    {
      "inputs": [],
      "name": "getFundSuccess",
      "outputs": [
        {
          "internalType": "bool",
          "name": "",
          "type": "bool"
        }
      ],
      "stateMutability": "view",
      "type": "function"
    },
    {
      "inputs": [],
      "name": "owner",
      "outputs": [
        {
          "internalType": "address",
          "name": "",
          "type": "address"
        }
      ],
      "stateMutability": "view",
      "type": "function"
    },
    {
      "inputs": [],
      "name": "refund",
      "outputs": [],
      "stateMutability": "nonpayable",
      "type": "function"
    },
    {
      "inputs": [
        {
          "internalType": "address",
          "name": "erc20Addr_",
          "type": "address"
        }
      ],
      "name": "setERC20Addr",
      "outputs": [],
      "stateMutability": "nonpayable",
      "type": "function"
    },
    {
      "inputs": [
        {
          "internalType": "address",
          "name": "funder",
          "type": "address"
        },
        {
          "internalType": "uint256",
          "name": "amountToUpdate",
          "type": "uint256"
        }
      ],
      "name": "setFunderToAmount",
      "outputs": [],
      "stateMutability": "nonpayable",
      "type": "function"
    },
    {
      "inputs": [
        {
          "internalType": "address",
          "name": "newOwner",
          "type": "address"
        }
      ],
      "name": "transferOwnerShop",
      "outputs": [],
      "stateMutability": "nonpayable",
      "type": "function"
    }
  ],
  "transactionHash": "0x62a1595fa2828cdb96774326000bb8143f0542ffa2b25c49b91ce7bcc07918f2",
  "args": [
    600,
    "0x694AA1769357215DE4FAC081bf1f309aDC325306"
  ],
  "numDeployments": 1,
  "solcInputHash": "bd00c492b48e0bcf5d96dd758f37eb0a",
  "bytecode": "0x60806040526000600560146101000a81548160ff02191690831515021790555034801561002b57600080fd5b5060405161157e38038061157e833981810160405281019061004d919061017d565b80600160006101000a81548173ffffffffffffffffffffffffffffffffffffffff021916908373ffffffffffffffffffffffffffffffffffffffff16021790555033600260006101000a81548173ffffffffffffffffffffffffffffffffffffffff021916908373ffffffffffffffffffffffffffffffffffffffff160217905550426003819055508160048190555050506101bd565b600080fd5b6000819050919050565b6100fc816100e9565b811461010757600080fd5b50565b600081519050610119816100f3565b92915050565b600073ffffffffffffffffffffffffffffffffffffffff82169050919050565b600061014a8261011f565b9050919050565b61015a8161013f565b811461016557600080fd5b50565b60008151905061017781610151565b92915050565b60008060408385031215610194576101936100e4565b5b60006101a28582860161010a565b92505060206101b385828601610168565b9150509250929050565b6113b2806101cc6000396000f3fe60806040526004361061009c5760003560e01c80639e42ff90116100645780639e42ff901461014c5780639f883a0514610177578063b60d4288146101b4578063bea4dfb5146101be578063d39cf006146101e9578063da4658e0146102125761009c565b8063590e1ae3146100a1578063648c2910146100b85780638b5ae53b146100e15780638da5cb5b1461010a5780638edd6eb614610135575b600080fd5b3480156100ad57600080fd5b506100b661023d565b005b3480156100c457600080fd5b506100df60048036038101906100da9190610b2f565b610492565b005b3480156100ed57600080fd5b5061010860048036038101906101039190610b2f565b610566565b005b34801561011657600080fd5b5061011f61063a565b60405161012c9190610b6b565b60405180910390f35b34801561014157600080fd5b5061014a610660565b005b34801561015857600080fd5b506101616107f6565b60405161016e9190610be5565b60405180910390f35b34801561018357600080fd5b5061019e60048036038101906101999190610b2f565b61081c565b6040516101ab9190610c19565b60405180910390f35b6101bc610834565b005b3480156101ca57600080fd5b506101d3610911565b6040516101e09190610c4d565b60405180910390f35b3480156101f557600080fd5b50610210600480360381019061020b9190610c94565b6109b2565b005b34801561021e57600080fd5b50610227610a89565b6040516102349190610cef565b60405180910390f35b60045460035461024d9190610d39565b42101561028f576040517f08c379a000000000000000000000000000000000000000000000000000000000815260040161028690610dca565b60405180910390fd5b6402540be40061029e47610a9c565b106102de576040517f08c379a00000000000000000000000000000000000000000000000000000000081526004016102d590610e36565b60405180910390fd5b60008060003373ffffffffffffffffffffffffffffffffffffffff1673ffffffffffffffffffffffffffffffffffffffff168152602001908152602001600020540361035f576040517f08c379a000000000000000000000000000000000000000000000000000000000815260040161035690610ea2565b60405180910390fd5b60003373ffffffffffffffffffffffffffffffffffffffff166000803373ffffffffffffffffffffffffffffffffffffffff1673ffffffffffffffffffffffffffffffffffffffff168152602001908152602001600020546040516103c390610ef3565b60006040518083038185875af1925050503d8060008114610400576040519150601f19603f3d011682016040523d82523d6000602084013e610405565b606091505b5050809150508061044b576040517f08c379a000000000000000000000000000000000000000000000000000000000815260040161044290610f54565b60405180910390fd5b60008060003373ffffffffffffffffffffffffffffffffffffffff1673ffffffffffffffffffffffffffffffffffffffff1681526020019081526020016000208190555050565b600260009054906101000a900473ffffffffffffffffffffffffffffffffffffffff1673ffffffffffffffffffffffffffffffffffffffff163373ffffffffffffffffffffffffffffffffffffffff1614610522576040517f08c379a000000000000000000000000000000000000000000000000000000000815260040161051990610fe6565b60405180910390fd5b80600560006101000a81548173ffffffffffffffffffffffffffffffffffffffff021916908373ffffffffffffffffffffffffffffffffffffffff16021790555050565b600260009054906101000a900473ffffffffffffffffffffffffffffffffffffffff1673ffffffffffffffffffffffffffffffffffffffff163373ffffffffffffffffffffffffffffffffffffffff16146105f6576040517f08c379a00000000000000000000000000000000000000000000000000000000081526004016105ed90610fe6565b60405180910390fd5b80600260006101000a81548173ffffffffffffffffffffffffffffffffffffffff021916908373ffffffffffffffffffffffffffffffffffffffff16021790555050565b600260009054906101000a900473ffffffffffffffffffffffffffffffffffffffff1681565b6004546003546106709190610d39565b4210156106b2576040517f08c379a00000000000000000000000000000000000000000000000000000000081526004016106a990610dca565b60405180910390fd5b600260009054906101000a900473ffffffffffffffffffffffffffffffffffffffff1673ffffffffffffffffffffffffffffffffffffffff163373ffffffffffffffffffffffffffffffffffffffff1614610742576040517f08c379a000000000000000000000000000000000000000000000000000000000815260040161073990610fe6565b60405180910390fd5b6402540be40061075147610a9c565b1015610792576040517f08c379a000000000000000000000000000000000000000000000000000000000815260040161078990611052565b60405180910390fd5b3373ffffffffffffffffffffffffffffffffffffffff166108fc479081150290604051600060405180830381858888f193505050501580156107d8573d6000803e3d6000fd5b506001600560146101000a81548160ff021916908315150217905550565b600160009054906101000a900473ffffffffffffffffffffffffffffffffffffffff1681565b60006020528060005260406000206000915090505481565b6004546003546108449190610d39565b4210610885576040517f08c379a000000000000000000000000000000000000000000000000000000000815260040161087c906110be565b60405180910390fd5b6305f5e1003410156108cc576040517f08c379a00000000000000000000000000000000000000000000000000000000081526004016108c39061112a565b60405180910390fd5b346000803373ffffffffffffffffffffffffffffffffffffffff1673ffffffffffffffffffffffffffffffffffffffff16815260200190815260200160002081905550565b600080600160009054906101000a900473ffffffffffffffffffffffffffffffffffffffff1673ffffffffffffffffffffffffffffffffffffffff1663feaf968c6040518163ffffffff1660e01b815260040160a060405180830381865afa158015610981573d6000803e3d6000fd5b505050506040513d601f19601f820116820180604052508101906109a591906111cd565b5050509150508091505090565b600560009054906101000a900473ffffffffffffffffffffffffffffffffffffffff1673ffffffffffffffffffffffffffffffffffffffff163373ffffffffffffffffffffffffffffffffffffffff1614610a42576040517f08c379a0000000000000000000000000000000000000000000000000000000008152600401610a39906112ba565b60405180910390fd5b806000808473ffffffffffffffffffffffffffffffffffffffff1673ffffffffffffffffffffffffffffffffffffffff168152602001908152602001600020819055505050565b600560149054906101000a900460ff1681565b600080610aa7610911565b90506305f5e1008184610aba91906112da565b610ac4919061134b565b915050919050565b600080fd5b600073ffffffffffffffffffffffffffffffffffffffff82169050919050565b6000610afc82610ad1565b9050919050565b610b0c81610af1565b8114610b1757600080fd5b50565b600081359050610b2981610b03565b92915050565b600060208284031215610b4557610b44610acc565b5b6000610b5384828501610b1a565b91505092915050565b610b6581610af1565b82525050565b6000602082019050610b806000830184610b5c565b92915050565b6000819050919050565b6000610bab610ba6610ba184610ad1565b610b86565b610ad1565b9050919050565b6000610bbd82610b90565b9050919050565b6000610bcf82610bb2565b9050919050565b610bdf81610bc4565b82525050565b6000602082019050610bfa6000830184610bd6565b92915050565b6000819050919050565b610c1381610c00565b82525050565b6000602082019050610c2e6000830184610c0a565b92915050565b6000819050919050565b610c4781610c34565b82525050565b6000602082019050610c626000830184610c3e565b92915050565b610c7181610c00565b8114610c7c57600080fd5b50565b600081359050610c8e81610c68565b92915050565b60008060408385031215610cab57610caa610acc565b5b6000610cb985828601610b1a565b9250506020610cca85828601610c7f565b9150509250929050565b60008115159050919050565b610ce981610cd4565b82525050565b6000602082019050610d046000830184610ce0565b92915050565b7f4e487b7100000000000000000000000000000000000000000000000000000000600052601160045260246000fd5b6000610d4482610c00565b9150610d4f83610c00565b9250828201905080821115610d6757610d66610d0a565b5b92915050565b600082825260208201905092915050565b7f49742773206e6f7420636c6f7365640000000000000000000000000000000000600082015250565b6000610db4600f83610d6d565b9150610dbf82610d7e565b602082019050919050565b60006020820190508181036000830152610de381610da7565b9050919050565b7f5461726765742069732072656163686564000000000000000000000000000000600082015250565b6000610e20601183610d6d565b9150610e2b82610dea565b602082019050919050565b60006020820190508181036000830152610e4f81610e13565b9050919050565b7f7468657265206973206e6f2066756e6420666f7220796f750000000000000000600082015250565b6000610e8c601883610d6d565b9150610e9782610e56565b602082019050919050565b60006020820190508181036000830152610ebb81610e7f565b9050919050565b600081905092915050565b50565b6000610edd600083610ec2565b9150610ee882610ecd565b600082019050919050565b6000610efe82610ed0565b9150819050919050565b7f726566756e64206661696c656400000000000000000000000000000000000000600082015250565b6000610f3e600d83610d6d565b9150610f4982610f08565b602082019050919050565b60006020820190508181036000830152610f6d81610f31565b9050919050565b7f746869732066756e63696f746e2063616e206f6e6c792062652063616c6c656460008201527f20206279206f776e657200000000000000000000000000000000000000000000602082015250565b6000610fd0602a83610d6d565b9150610fdb82610f74565b604082019050919050565b60006020820190508181036000830152610fff81610fc3565b9050919050565b7f546172676574206973206e6f7420726561636865640000000000000000000000600082015250565b600061103c601583610d6d565b915061104782611006565b602082019050919050565b6000602082019050818103600083015261106b8161102f565b9050919050565b7f7468652066756e6420697320636c6f7365640000000000000000000000000000600082015250565b60006110a8601283610d6d565b91506110b382611072565b602082019050919050565b600060208201905081810360008301526110d78161109b565b9050919050565b7f746f6f206c657373000000000000000000000000000000000000000000000000600082015250565b6000611114600883610d6d565b915061111f826110de565b602082019050919050565b6000602082019050818103600083015261114381611107565b9050919050565b600069ffffffffffffffffffff82169050919050565b6111698161114a565b811461117457600080fd5b50565b60008151905061118681611160565b92915050565b61119581610c34565b81146111a057600080fd5b50565b6000815190506111b28161118c565b92915050565b6000815190506111c781610c68565b92915050565b600080600080600060a086880312156111e9576111e8610acc565b5b60006111f788828901611177565b9550506020611208888289016111a3565b9450506040611219888289016111b8565b935050606061122a888289016111b8565b925050608061123b88828901611177565b9150509295509295909350565b7f796f7520617265206e6f7420616c6c6f77656420746f2063616c6c207468697360008201527f2066756e6374696f6e0000000000000000000000000000000000000000000000602082015250565b60006112a4602983610d6d565b91506112af82611248565b604082019050919050565b600060208201905081810360008301526112d381611297565b9050919050565b60006112e582610c00565b91506112f083610c00565b92508282026112fe81610c00565b9150828204841483151761131557611314610d0a565b5b5092915050565b7f4e487b7100000000000000000000000000000000000000000000000000000000600052601260045260246000fd5b600061135682610c00565b915061136183610c00565b9250826113715761137061131c565b5b82820490509291505056fea2646970667358221220a109763230d39bdaa236988da87fccf2f71a6df30def460aac2d959262f7a7b664736f6c634300081c0033",
  "devdoc": {
    "kind": "dev",
    "methods": {},
    "version": 1
  },
  "userdoc": {
    "kind": "user",
    "methods": {},
    "version": 1
  },
  "storageLayout": {
    "storage": [
      {
        "astId": 53,
        "contract": "contracts/FundMe.sol:FundMe",
        "label": "fundersToAmount",
        "offset": 0,
        "slot": "0",
        "type": "t_mapping(t_address,t_uint256)"
      },
      {
        "astId": 63,
        "contract": "contracts/FundMe.sol:FundMe",
        "label": "dataFeed",
        "offset": 0,
        "slot": "1",
        "type": "t_contract(AggregatorV3Interface)45"
      },
      {
        "astId": 72,
        "contract": "contracts/FundMe.sol:FundMe",
        "label": "owner",
        "offset": 0,
        "slot": "2",
        "type": "t_address"
      },
      {
        "astId": 74,
        "contract": "contracts/FundMe.sol:FundMe",
        "label": "deploymentTimeStamp",
        "offset": 0,
        "slot": "3",
        "type": "t_uint256"
      },
      {
        "astId": 76,
        "contract": "contracts/FundMe.sol:FundMe",
        "label": "lockTime",
        "offset": 0,
        "slot": "4",
        "type": "t_uint256"
      },
      {
        "astId": 78,
        "contract": "contracts/FundMe.sol:FundMe",
        "label": "erc20Addr",
        "offset": 0,
        "slot": "5",
        "type": "t_address"
      },
      {
        "astId": 81,
        "contract": "contracts/FundMe.sol:FundMe",
        "label": "getFundSuccess",
        "offset": 20,
        "slot": "5",
        "type": "t_bool"
      }
    ],
    "types": {
      "t_address": {
        "encoding": "inplace",
        "label": "address",
        "numberOfBytes": "20"
      },
      "t_bool": {
        "encoding": "inplace",
        "label": "bool",
        "numberOfBytes": "1"
      },
      "t_contract(AggregatorV3Interface)45": {
        "encoding": "inplace",
        "label": "contract AggregatorV3Interface",
        "numberOfBytes": "20"
      },
      "t_mapping(t_address,t_uint256)": {
        "encoding": "mapping",
        "key": "t_address",
        "label": "mapping(address => uint256)",
        "numberOfBytes": "32",
        "value": "t_uint256"
      },
      "t_uint256": {
        "encoding": "inplace",
        "label": "uint256",
        "numberOfBytes": "32"
      }
    }
  }
}